:020000021000EC
:10600000004000204DAE010095AE010097AE0100AA
:106010000000000000000000000000000000000080
:1060200000000000000000000000000099AE010028
:1060300000000000000000009BAE01009DAE0100CA
:106040009FAE01009FAE01009FAE01009FAE010018
:106050009FAE0100000000009DA201009FAE010064
:106060009FAE01009FAE01009FAE01009FAE0100F8
:106070009FAE01009FAE01009FAE01009FAE0100E8
:106080009FAE0100399B01009FAE01009FAE010051
:10609000859B01009FAE0100358001009FAE01008D
:1060A0009FAE01009FAE0100000000000000000054
:1060B00000000000000000000000000000000000E0
:1060C000164B002B00D1144B9D46402292029A1A87
:1060D000924600218B460F461348144A121A04F0C8
:1060E000A5FF0F4B002B00D098470E4B002B00D084
:1060F00098470020002104000D000D48002802D020
:106100000C4805F0A7F804F02BFF2000290000F050
:1061100055FF04F015FFC0460000080000400020B5
:106120000000000000000000A824002070300020C3
:1061300055B2010065B2010080B582B000AF786051
:10614000A023DB057A68C132FF3292000321D150CF
:10615000BD4602B080BDC04680B582B000AF786059
:106160000A1CFB1C1A70A023DB05FA1C1278920093
:10617000111C7A68C132FF329200D150BD4602B084
:1061800080BDC04680B582B000AF7860A023DA053C
:106190007B6801219940A123DB00D150BD4602B0AC
:1061A00080BDC04680B582B000AF7860A023DA051C
:1061B0007B6801219940024BD150BD4602B080BDA1
:1061C0000C05000073DF7047181CC04676DF70476F
:1061D000181CC0467ADF7047181CC0467CDF704729
:1061E000181CC0467FDF7047181CC04681DF70470F
:1061F000181CC046A9DF7047181CC04660DF7047F6
:10620000181CC04634DF7047181CC04640DF70477A
:10621000181CC04680B586B002AFF860B9607A60DD
:10622000F968BA687B68081C111C1A1C01F028FF69
:106230000549FA68BB6878680090002004F064FDA6
:10624000BD4604B080BDC04670B3010080B582B0C9
:1062500000AF021C3960BB1D1A80BB1D1A8805499E
:106260003B68081C111C1A1CFFF7D4FFBD4602B086
:1062700080BDC046EFBEADDE80B582B000AF7860B5
:10628000FB1C1970BB1C1A70FB1C1B78012B08D05F
:1062900002DC002B0AD01BE0022B0CD0032B12D007
:1062A00016E07B68181CFFF77DFF1AE07B68181C5E
:1062B000FFF768FF15E07A68BB1C1B78101C191CDF
:1062C000FFF74AFF0DE07B68181CFFF735FF08E079
:1062D000FB1C1B78044A0020111C1A1C04F014FD3E
:1062E000C046BD4602B080BDA8B3010080B500AF76
:1062F000264B0020191C04F007FD03200321002277
:10630000FFF7BAFF042003210022FFF7B5FF0520A5
:1063100003210022FFF7B0FF062003210022FFF730
:10632000ABFF072003210022FFF7A6FF092003216E
:106330000022FFF7A1FF0C2003210022FFF79CFFA2
:10634000032000210022FFF797FF042000210022F4
:10635000FFF792FF052000210022FFF78DFF0620A6
:1063600000210022FFF788FF072000210022FFF70D
:1063700083FF092000210022FFF77EFF0C2000216F
:106380000022FFF779FFBD4680BDC046BCB30100C7
:1063900080B582B000AF7860032000210022FFF7B3
:1063A0006BFF044B0020191C04F0AEFCBD4602B08C
:1063B00080BDC046D4B3010080B582B000AF786024
:1063C000042000210022FFF757FF044B0020191C76
:1063D00004F09AFCBD4602B080BDC046E0B30100A7
:1063E00080B582B000AF7860052000210022FFF761
:1063F00043FF044B0020191C04F086FCBD4602B08C
:1064000080BDC046ECB3010080B582B000AF7860BB
:10641000062000210022FFF72FFF044B0020191C4B
:1064200004F072FCBD4602B080BDC046F8B3010066
:1064300080B582B000AF7860072000210022FFF70E
:106440001BFF044B0020191C04F05EFCBD4602B08B
:1064500080BDC04604B4010080B582B000AF786052
:10646000092000210022FFF707FF044B0020191C20
:1064700004F04AFCBD4602B080BDC04610B4010025
:1064800080B582B000AF78600C2000210022FFF7B9
:10649000F3FE044B0020191C04F036FCBD4602B08C
:1064A00080BDC0461CB4010080B500AF034B002086
:1064B000191C04F029FCBD4680BDC04628B401006B
:1064C00080B58CB002AF634B0022009200200821FF
:1064D000092203F05DFB031C7B627B6A3B623B6A23
:1064E000002B08D0396A9D235A005B4B081C111CF5
:1064F0001A1CFFF78FFE594B0020191C04F004FCF6
:10650000574A584B101C00211A1C03F0F9FB031CBE
:10651000FB61FB69BB61BB69002B09D0B9694223F0
:106520001A1CFF324C4B081C111C1A1CFFF772FE80
:106530004D4A4E4B101C00211A1C03F0E1FB031CBA
:10654000FB61FB697B617B69002B08D07969A32320
:106550005A00414B081C111C1A1CFFF75BFE444AF1
:10656000444B101C00211A1C03F0CAFB031CFB61E6
:10657000FB693B613B69002B09D039694C231A1C2C
:10658000FF32354B081C111C1A1CFFF743FE3A4A18
:106590003A4B101C00211A1C03F0B2FB031CFB61D8
:1065A000FB69FB60FB68002B09D0F96850231A1CBB
:1065B000FF32294B081C111C1A1CFFF72BFE304A16
:1065C000304B101C00211A1C03F09AFB031CFB61CA
:1065D000FB69BB60BB68002B09D0B96854231A1C47
:1065E000FF321D4B081C111C1A1CFFF713FE264A14
:1065F000264B101C00211A1C03F082FB031CFB61BC
:10660000FB697B607B68002B09D0796858231A1CD2
:10661000FF32114B081C111C1A1CFFF7FBFD1C4A12
:106620001C4B101C00211A1C03F06AFB031CFB61AD
:10663000FB693B603B68002B09D039685C231A1C5E
:10664000FF32054B081C111C1A1CFFF7E3FDBD4669
:106650000AB080BDE824002038B4010040B4010035
:10666000CC24002091630100D0240020B9630100F4
:10667000D4240020E1630100D82400200964010033
:10668000DC24002031640100E02400205964010072
:10669000E42400208164010080B586B000AF3B1C7B
:1066A0001A780F218A4301210A431A703B1C19787A
:1066B0000F220A4010210A431A70244B0020191C93
:1066C00004F022FB3A1C224B101C191C0622FFF777
:1066D00085FD031C7B617B693B613B69002B08D016
:1066E0003969B8235A001B4B081C111C1A1CFFF7F0
:1066F00091FD3B1D181C0021082204F097FC3B1D56
:10670000C82252001A803B1DC82292005A803B1DAD
:1067100000229A803B1DC8225200DA803B1D181CC3
:10672000FFF758FD031C7B617B69FB60FB68002B56
:1067300008D0F968BD235A00064B081C111C1A1C0E
:10674000FFF768FDBD4606B080BDC0465CB40100E1
:1067500080B4010038B4010080B5A0B000AFFB1DCB
:1067600005221A703B1C00221A80254B9A7C3B1C88
:106770009A70244B0020191C04F0C6FA3B1C4033CD
:10678000181C0021382204F051FC3B1C403302222B
:106790001A703B1C403301229A703B1C403301228B
:1067A0009A803B1C4033FA1D9A603B1C0833181C2E
:1067B0000021382204F03AFC3B1C083301221A83E2
:1067C0003B1C08333A1CDA613A1C40323B1C08334C
:1067D000101C191C01F09EFA031CFB67FB6FBB67C2
:1067E000BB6F002B08D0B96FCD235A00064B081C95
:1067F000111C1A1CFFF70EFDBD4620B080BDC0461F
:10680000B024002088B4010038B4010080B582B003
:1068100000AF78600A1CFB1C1A70FB1C1B78544AE2
:106820000020111C1A1C04F06FFAFB1C1B78062BAD
:1068300000D990E09A004F4BD3181B689F46032065
:1068400001210022FFF718FD4B4B1A688023DB0162
:10685000101C191C002203F0CBFA484B0020191C15
:1068600004F052FA80E0042001210022FFF704FD29
:10687000434B1A688023DB01101C191C002203F013
:10688000B7FA404B0020191C04F03EFA6CE00520DA
:1068900001210022FFF7F0FC3B4B1A688023DB014B
:1068A000101C191C002203F0A3FA384B0020191CFD
:1068B00004F02AFA58E0062001210022FFF7DCFC50
:1068C000334B1A688023DB01101C191C002203F0D3
:1068D0008FFA304B0020191C04F016FA44E0072010
:1068E00001210022FFF7C8FC2B4B1A688023DB0133
:1068F000101C191C002203F07BFA284B0020191CE5
:1069000004F002FA30E0092001210022FFF7B4FC74
:10691000234B1A688023DB01101C191C002203F092
:1069200067FA204B0020191C04F0EEF91CE00C2043
:1069300001210022FFF7A0FC1B4B1A688023DB011A
:10694000101C191C002203F053FA184B0020191CCC
:1069500004F0DAF908E0FB1C1B78154A0020111C32
:106960001A1C04F0D1F9C046BD4602B080BDC04635
:10697000ACB401005CB50100CC240020D8B4010007
:10698000D0240020E8B40100D4240020F8B4010091
:10699000D824002008B50100DC24002018B501002F
:1069A000E024002028B50100E424002038B50100CF
:1069B00048B5010080B584B000AF104B7B60104B30
:1069C0000020191C04F0A0F90E4A3B1D101C191CD4
:1069D00000F04CFC031CFB60FB68BB60BB68002B39
:1069E00008D0B968EC235A00074B081C111C1A1C6C
:1069F000FFF710FCBD4604B080BDC0460D68010025
:106A000078B50100B024002038B4010080B500AF93
:106A10000E4B9A7801210A439A700C4B9A78022106
:106A20008A439A70094B9A781C218A430C210A43A5
:106A30009A70064B9A7820218A439A70034B07225A
:106A4000DA70024B10221A71BD4680BDA8240020C6
:106A500080B584B000AF7860104B0020191C04F0A2
:106A600053F97B681B78002B15D10D4B1B88181C24
:106A70003B21FFF7ABFB031CFB60FB68BB60BB6803
:106A8000002B08D0B968FD235A00064B081C111CC6
:106A90001A1CFFF7BFFBBD4604B080BD94B50100D2
:106AA0000020002038B4010080B582B000AF7860CB
:106AB0007968054A054B081C111C1A1CFFF7AAFB34
:106AC000BD4602B080BDC0460602000038B40100D9
:106AD00080B58AB000AF1D4B0020191C04F014F9DA
:106AE0003B1D181C00211C2204F0A0FA3B1D0022B3
:106AF0001A603B1DA02292025A603B1DF022120335
:106B00009A603B1D03221A733B1D0022DA813B1D54
:106B100000221A743B1D0E4A5A613B1D0D4A9A61B0
:106B20003B1D181C01F088FB031C7B627B6A3B62E7
:106B30003B6A002B07D0396A074A084B081C111C16
:106B40001A1CFFF767FBBD460AB080BDB0B5010057
:106B5000516A0100A96A01001D02000038B4010059
:106B600080B588B000AF3B1D181C0021142204F032
:106B70005DFA3B1D00221A703B1D00225A603B1D2E
:106B800000221A723B1D40221A823B1DB4225A82F7
:106B9000124B0020191C04F0B7F83B1D181CFFF71E
:106BA00011FB031CFB61FB69BB61BB69002B07D0B8
:106BB000B9690B4A0B4B081C111C1A1CFFF72AFB66
:106BC000094B0020191C04F09FF814200121002219
:106BD000FFF752FBBD4608B080BDC046D4B50100EA
:106BE0003202000038B40100ECB5010080B58AB073
:106BF00000AF78607B681B88103B422B00D9BBE05C
:106C00009A005F4BD3181B689F465E4B0020191CEF
:106C100004F07AF8142000210022FFF72DFB7B6896
:106C20009A88594B1A80A8E0584B0020191C04F090
:106C30006BF8554B012252421A80554B0020191C0B
:106C400004F062F8FFF78CFF97E0524B0020191C0C
:106C500004F05AF84C4B1A884F4B101C00211A1C98
:106C6000FFF7C0FA031C7B627B6A3B623B6A002B26
:106C700009D0396A97239A00484B081C111C1A1C2A
:106C8000FFF7C8FA79E078E03F4B1B88181C002119
:106C90000022FFF7AFFA031C7B627B6AFB61FB6992
:106CA000002B08D0F9693E4A3C4B081C111C1A1CE9
:106CB000FFF7B0FA61E060E03A497A680623D2183B
:106CC0003223081C111C1A1C04F06EF955E0364BD7
:106CD000BB61BB691A887B68DB899A4218D12A4B51
:106CE0001A88BB69101C191C0022FFF77FFA031CCD
:106CF0007B627B6A7B617B69002B08D079692B4AB8
:106D0000264B081C111C1A1CFFF784FA17E016E02A
:106D10001D4B1B88181C00210022FFF767FA031C7B
:106D20007B627B6A3B613B69002B08D03969204A52
:106D30001A4B081C111C1A1CFFF76CFA1DE01CE012
:106D40001C4B0020191C03F0DFFF7B689B79002B94
:106D500011D1FFF757FA031C7B627B6AFB60FB686B
:106D6000002B08D0F968144A0C4B081C111C1A1C83
:106D7000FFF750FA01E000E0C046BD460AB080BD12
:106D800054B60100FCB501000020002010B601003F
:106D9000D4B5010028B60100A824002038B40100B1
:106DA0006102000010290020162900206D02000059
:106DB0007302000040B601008202000080B582B07C
:106DC00000AF78600A4B0020191C03F09DFF7B6820
:106DD000181CFFF70BFF7B68181C01F07DFB054AB0
:106DE0007B68101C191C00F065F9BD4602B080BD1F
:106DF00060B70100B024002080B582B000AF786099
:106E00007B68181C01F04AFCBD4602B080BDC0463C
:106E100080B588B000AF314B0820191C50220023E8
:106E200001F09AF8031CFB61FB69BB61BB69002B95
:106E300007D0B9692A4A2B4B081C111C1A1CFFF7F2
:106E4000E9F93B1D181C0021012204F0EFF83B1D5D
:106E50001A7801218A431A703B1D181CFFF7CEF9DE
:106E6000031C7B617B693B613B69002B07D039695F
:106E70001D4A1C4B081C111C1A1CFFF7CBF91B4B9D
:106E8000181C01F0AFF8031C7B617B69FB60FB6899
:106E9000002B07D0F968164A124B081C111C1A1C4B
:106EA000FFF7B8F9134B181C01F0B0F8031C7B6115
:106EB0007B69BB60BB68002B07D0B9680E4A094BE1
:106EC000081C111C1A1CFFF7A5F90C4B0020191CFB
:106ED00003F01AFFBD4608B080BDC046442900201B
:106EE000B202000038B40100B9020000BD6D01001B
:106EF000BD020000F96D0100C102000078B7010079
:106F000080B582B000AF0C4B08200A211A1C03F098
:106F10000DF8031C7B607B683B603B68002B07D04F
:106F20003968064A064B081C111C1A1CFFF772F937
:106F3000BD4602B080BDC04694290020CA020000B0
:106F400038B4010080B582B000AF0B4B0120191C92
:106F500003F032FA031C7B607B683B603B68002BCC
:106F600007D03968054A064B081C111C1A1CFFF78C
:106F700051F9BD4602B080BD442A0020E90200005C
:106F800038B4010080B582B000AFFFF73FF9031CB1
:106F90007B607B683B603B68002B07D03968054A03
:106FA000054B081C111C1A1CFFF734F9BD4602B032
:106FB00080BDC0460303000038B4010080B500AFB7
:106FC000FFF794F9FFF77CFAFFF7BCFFFFF720FF0C
:106FD000FFF796FFFFF760FBFFF7ECFCFFF7BCFB4A
:106FE000FFF776FDFFF712FDFFF75EFAFFF7B8FD3A
:106FF00003F034F8FFF7C6FFFAE7C046A0DF70479A
:10700000181CC046A2DF7047181CC04663DF7047DB
:10701000181CC04680B582B000AF786039603B680C
:107020009A887B689A82044B0020191C03F06CFE3E
:10703000BD4602B080BDC04694B7010080B582B0A5
:1070400000AF786039607B68012252429A82044B1B
:107050000020191C03F058FEBD4602B080BDC0469A
:10706000ACB7010080B584B000AF786039603B6890
:107070000633FB600E4B0020191C03F045FEFB6835
:107080001A887B685B889A420FD1FB681B8B012BA7
:107090000BD17B689B69002B07D07B689B69FA68E2
:1070A000927E7968081C111C9847BD4604B080BDCB
:1070B000C8B7010080B582B000AF78603960134B6B
:1070C0000020191C03F020FE3B681B88112B0BD0FD
:1070D000502B10D0102B00D014E07A683B68101CA5
:1070E000191CFFF797FF0DE07A683B68101C191C0C
:1070F000FFF7A4FF06E07A683B68101C191CFFF735
:10710000B1FFC046BD4602B080BDC046E0B7010039
:1071100080B590B000AF786039603B1C2433181CF8
:1071200000211C2203F082FF3B1C24331A78022129
:107130000A431A703B1C24331A7808210A431A7038
:107140003B1C243300225A603B1C24330022DA60AB
:107150003B1C243300221A613B1C243300225A6159
:107160003B1C243300229A617B689A7C3B1C0C33C5
:107170009A703B1C0C3301221A803B1C0833181CEC
:107180000021032203F052FF3B1C08331A780F2121
:107190008A4301210A431A703B1C083319780F22D5
:1071A0000A4010210A431A703B1C08335A780F21F9
:1071B0008A4301210A435A703B1C083359780F2235
:1071C0000A4010210A435A703B1C08339A78062162
:1071D0008A4302210A439A703B1C08339A7808219B
:1071E0008A439A703B1C08339A7810218A439A701C
:1071F0003B1C08339A7801218A439A703B1C103358
:10720000181C0021142203F011FF3B1C10333A1C00
:107210000C321A603B1C10333A1C08325A603B1C7B
:10722000103301221A813B1C103300225A813B1C6F
:10723000103301229A813B1C103300221A610A4B41
:107240000020191C03F060FD7B6818887B680233FE
:10725000391C24313A1C1032FFF7D4FE031C181CD1
:10726000BD4610B080BDC04604B8010080B588B0EE
:1072700000AF786039603A1C0C32274B111C1A1C85
:107280001023081C111C1A1C03F08EFE7B680122BF
:1072900052429A823B681A687B689A617B68123313
:1072A0003A1C0C32101C191CFFF7B0FE031CFB61CA
:1072B000FB69002B01D0FB692AE07B689A7C3B1CB0
:1072C00008339A703B1C083300221A80134B0020AD
:1072D000191C03F019FD7B683A1C08320120111CAF
:1072E0001A1CFFF78BFE031CFB61FB69002B01D00E
:1072F000FB690DE07A683B68101C191CFFF708FF5A
:10730000031CFB61FB69002B01D0FB6900E000233B
:10731000181CBD4608B080BD38B8010024B8010073
:1073200072DF7047181CC04679DF7047181CC046D2
:107330007DDF7047181CC04665DF7047181CC046CB
:1073400080B582B000AF021C3960BB1D1A80BB1D26
:107350001B88DAB23B681A703B680133BA1D128889
:10736000120A92B2D2B21A700223181CBD4602B0A1
:1073700080BDC04680B588B000AFF860B9607A6063
:107380003B1C1C337A6812781A703B1C1C331B7828
:1073900002331F2B04DCFB685B7802331F2B01DDFB
:1073A0000C237DE03B1C1C331B789AB23B1C1E3324
:1073B0001D218A1A1A803B1C16333A1C1E32128871
:1073C0001A803B1C1C331B780233BA68D2183B1C52
:1073D0001633101C191CFFF7ABFF031CBB61BB6904
:1073E000002B01D0BB695BE0FB681B78022B12D13C
:1073F0003B1C16331B883A1C1E3212889A420AD351
:107400003B1C1D3309221A703B1C1E333A1C1632DA
:1074100012881A801AE03B1C1D3308221A70FB6880
:107420005B78002B0CD0FB685B783A1C1E3212880C
:107430009A4205D3FB685A783B1C1E331A8005E03C
:107440003B1C1E333A1C163212881A803B1C1C331C
:107450001B783A1C1C32591C1170BA68D3183A1C9C
:107460001E321288D2B20132D2B21A703B1C1C33C7
:107470001B783A1C1C32591C1170BA68D3183A1C7C
:107480001D3212781A707B681A783B1C1E331B88D9
:10749000DBB2D318DBB20233DAB27B681A70002396
:1074A000181CBD4608B080BD90B585B000AF7860AF
:1074B00039603B681B7804331F2B01DD0C2332E05D
:1074C0003B1C0A33181CFFF72FFF031CFB60FB68F3
:1074D000002B01D0FB6826E03B681B785A1CD1B218
:1074E0003A6811707A68D31803221A703B681B78C7
:1074F0005A1CD1B23A6811707A68D31819221A70DE
:107500003B681C783B1C0A331A883B681B787968F7
:10751000CB18101C191CFFF713FF031CE318DAB279
:107520003B681A700023181CBD4605B090BDC046CC
:1075300080B584B000AFF8607A603B603B1C0B33D1
:107540000A1C1A70FB685B68002B01D107233AE024
:107550003B681B789A1CFB681B88D3181F2B01DD26
:107560000C2330E03B681B785A1CD1B23A6811708A
:107570007A68D318FA681288D2B20132D2B21A707D
:107580003B681B785A1CD1B23A6811707A68D318DC
:107590003A1C0B3212781A703B681B787A68D11843
:1075A000FB685A68FB681B88081C111C1A1C03F036
:1075B000FBFC3B681A78FB681B88DBB2D318DAB295
:1075C0003B681A700023181CBD4604B080BDC0463D
:1075D00080B584B000AFB9607A603B1C0F33021CE9
:1075E0001A707B681B7803331F2B01DD0C2320E00E
:1075F0007B681B785A1CD1B27A681170BA68D318AC
:1076000002221A707B681B785A1CD1B27A681170FA
:10761000BA68D3180A221A707B681B785A1CD1B238
:107620007A681170BA68D3183A1C0F3212781A703F
:107630000023181CBD4604B080BDC04680B58AB08A
:1076400000AFF8607B603B1C0B3319703B1C0A33A6
:107650001A703B1C233300221A703B1C22333A6BF6
:1076600012781A7000237B627EE0FB685A687B6A9E
:107670009B00D3183A1C1432111C1A1C0423081C3A
:10768000111C1A1C03F090FC3A1C14323B1C1A33D8
:10769000101C191C0022FFF74FFE031CFB61FB6945
:1076A000002B01D0FB697BE03B1C1A331B783A1C92
:1076B0000A3212789A4254D13B1C23331B78002B98
:1076C00001D0002300E002233A1C1B3213703B6BF5
:1076D0001B781A1C3B1C1A331B78D2183B1C1B331B
:1076E0001B78D3181F2B01DD0C2359E03B1C2333DF
:1076F0001B7801225340DBB2002B15D03B6B1B786B
:107700000133DAB23B6B1A703B6B1B785A1CD1B257
:107710003A6B11707A68D3183A1C0B3212781A70CF
:107720003B1C233301221A703B6B1B787A68D318F9
:10773000391C14313A1C1A32081C111C1A1CFFF790
:10774000FBFD031CFB61FB69002B01D0FB6927E0FB
:107750003B6B1A783B1C1A331B78D318DAB23B6B9D
:107760001A707B6A01337B62FB681B881A1C7B6A78
:107770009A4200DD79E73B1C23331B78002B0ED0A7
:107780003B1C22331B787A68D3183A6B11783A1C69
:10779000223212788A1AD2B2013AD2B21A70002377
:1077A000181CBD460AB080BD80B588B002AFF86035
:1077B0007B603B1C0B3319703B1C0A331A70F96851
:1077C0003B1C0B331A787B68386A0090081C111C2C
:1077D0000222FFF733FF031C7B617B69002B01D082
:1077E0007B6913E0F9683B1C0A331A787B68386AB6
:1077F0000090081C111C1022FFF720FF031C7B6166
:107800007B69002B01D07B6900E00023181CBD467A
:1078100006B080BD80B582B000AF78607B681B8801
:10782000052B0AD97B681A88C8231B019A4206D9FE
:107830007B681A88164B9A4201D0072323E07B68A5
:107840005B88052B0AD97B685A88C8231B019A429A
:1078500006D97B685A880E4B9A4201D0072312E062
:107860007B681A880A4B9A420CD07B685A88084B6E
:107870009A4207D07B681A887B685B889A4201D954
:10788000072300E00023181CBD4602B080BDC0469F
:10789000FFFF000090B587B000AFF860B9607A6074
:1078A0007B681B7806331F2B01D90C2341E0FB6852
:1078B000181CFFF7AFFF031C7B617B69002B01D015
:1078C0007B6936E07B681B785A1CD1B27A681170EC
:1078D000BA68D31805221A707B681B785A1CD1B27B
:1078E0007A681170BA68D31812221A707B681C78F3
:1078F000FB681A887B681B78B968CB18101C191CA8
:10790000FFF71EFD031CE318DAB27B681A707B6870
:107910001C78FB685A887B681B78B968CB18101CE8
:10792000191CFFF70DFD031CE318DAB27B681A700F
:107930000023181CBD4607B090BDC04690B587B067
:1079400000AFF860B9607A60FB689B88DAB23B1CD4
:10795000173302321A707B681B789A1C3B1C173352
:107960001B78D3181F2B01DD0C2349E07B681B78A3
:107970005A1CD1B27A681170BA68D3183A1C1732FF
:1079800012780132D2B21A707B681B785A1CD1B2BD
:107990007A681170BA68D318FF221A707B681C7855
:1079A000FB681A887B681B78B968CB18101C191CF7
:1079B000FFF7C6FC031CE318DAB27B681A70FB6899
:1079C0009B88002B1BD0FB689B68002B01D10723F1
:1079D00016E07B681B78BA68D118FB689A68FB6868
:1079E0009B88081C111C1A1C03F0DEFA7B681A78AD
:1079F000FB689B88DBB2D318DAB27B681A7000236D
:107A0000181CBD4607B090BD90B589B000AFF860B6
:107A1000B9607A60FB681B6B002B01D107236FE014
:107A20003B1C1F3300221A7061E0FB68196B3B1C82
:107A30001F331A78131C5B009B189B00CB18BB618B
:107A4000BB699B88DAB23B1C173302321A707B6821
:107A50001B785A1CD1B27A681170BA68D3183A1CD4
:107A6000173212780132D2B21A707B681B785A1C16
:107A7000D1B27A681170BA68D31816221A707B686E
:107A80001C78BB691A887B681B78B968CB18101CF6
:107A9000191CFFF755FC031CE318DAB27B681A7057
:107AA000BB699B88002B1BD0BB699B68002B01D155
:107AB000072325E07B681B78BA68D118BB699A68F0
:107AC000BB699B88081C111C1A1C03F06DFA7B68AB
:107AD0001A78BB699B88DBB2D318DAB27B681A705C
:107AE0003B1C1F331A783B1C1F3301321A70FA6893
:107AF0003423D35C3A1C1F3212789A4295D3002368
:107B0000181CBD4609B090BD80B588B002AFF860C2
:107B1000B9607A6000237B617B6800221A70FB6881
:107B20001B78002B0ED0F968BA687B68081C111C02
:107B30001A1CFFF71FFC031C7B617B69002B01D023
:107B40007B69B8E0FB689B78002B0CD0BA687B6837
:107B5000101C191CFFF7A8FC031C7B617B69002B20
:107B600001D07B69A7E0FB689B88002B0ED0FB68E7
:107B7000191DBA687B68081C0121FFF7D9FC031C9A
:107B80007B617B69002B01D07B6994E0FB68DB683B
:107B9000002B11D0FB68DB681B7859B2BA687B6890
:107BA000081C111C1A1CFFF713FD031C7B617B6969
:107BB000002B01D07B697EE0FB681B8A002B11D073
:107BC000FB681A1C1032BB6879680091101C0221F6
:107BD0000622FFF7E9FD031C7B617B69002B01D0C6
:107BE0007B6968E0FB681B8B002B11D0FB681A1CBB
:107BF0001832BB6879680091101C03210722FFF737
:107C0000D3FD031C7B617B69002B01D07B6952E0B3
:107C1000FB681B8C002B11D0FB681A1C2032BB6840
:107C200079680091101C14211522FFF7BDFD031C7B
:107C30007B617B69002B01D07B693CE0FB689B6A20
:107C4000002B0FD0FB68996ABA687B68081C111C6E
:107C50001A1CFFF71FFE031C7B617B69002B01D000
:107C60007B6928E0FB68DB6A002B0FD0FB68D96AD0
:107C7000BA687B68081C111C1A1CFFF75FFE031C06
:107C80007B617B69002B01D07B6914E0FA683423A7
:107C9000D35C002B0ED0F968BA687B68081C111CF5
:107CA0001A1CFFF7B1FE031C7B617B69002B01D01E
:107CB0007B6900E07B69181CBD4606B080BDC046EC
:107CC00080B582B000AF78607B689B88002B0AD0BB
:107CD0007B689B68002B06D07B689B681B781A1C0E
:107CE0000423134001D1072300E00023181CBD46E4
:107CF00002B080BD80B582B000AF78607B689B88A1
:107D0000002B01D0072300E00023181CBD4602B061
:107D100080BDC04680B596B000AF786039603B1C2E
:107D20004B3300221A703B1C4A3300221A707B68C6
:107D3000002B1FD07B68181CFFF7C2FF031CFB64DD
:107D4000FB6C002B01D0FB6C46E079683A1C2832B2
:107D50003B1C4B33081C111C1A1CFFF7D5FE031CDF
:107D6000FB64FB6C002B01D0FB6C35E03B1C283323
:107D70007B6501E000237B653B68002B1FD03B68DF
:107D8000181CFFF7B7FF031CFB64FB6C002B01D032
:107D9000FB6C21E039683A1C08323B1C4A33081C52
:107DA000111C1A1CFFF7B0FE031CFB64FB6C002BBC
:107DB00001D0FB6C10E03B1C08333B6501E0002365
:107DC0003B653B1C4B3319783B1C4A331B78786D61
:107DD0003A6DFFF7A5FA031C181CBD4616B080BD0E
:107DE00026DF7047181CC04651DF7047181CC0467C
:107DF00010DF7047181CC04680B582B000AF7860B5
:107E00007A68032313405A425341DBB2181CBD4623
:107E100002B080BD61DF7047181CC04680B584B0D9
:107E200000AFF8607A603B1C0A330A1C1A803B1CC6
:107E30000A331A887B68101C191CFEF707FABD4626
:107E400004B080BD80B584B000AF3D4B1B78DBB281
:107E500001225340DBB2002B00D06DE0394B1A6891
:107E60003B1C0F3351424A411A70374B1A683B1C76
:107E70000E3351424A411A703B1C0F331B780122CA
:107E80005340DBB2002B1DD03B1D181CFFF7ACFF8D
:107E9000031CBB60BB68052B04D13B1C0F330122C4
:107EA0001A700FE0BB68002B07D0BA68274B101C74
:107EB00069211A1CFEF7AEF904E0224B1B687A68B0
:107EC000101C98473B1C0E331B7801225340DBB239
:107ED000002B25D01E4B1A88BB1C1A801D4B1A681C
:107EE000BB1C101C191CFFF795FF031CBB60BB6873
:107EF000052B04D13B1C0E3301221A7010E0BB6825
:107F0000002B07D0BA68114B101C80211A1CFEF7F9
:107F100081F905E00C4B1A680E4B1B68181C904742
:107F20003B1C0F331B78002B05D03B1C0E331B78FA
:107F3000002B00D000E09FE7BD4604B080BDC046E6
:107F4000622A0020682A0020642A002048B8010024
:107F5000602A00205C2A002080B586B000AFF8605F
:107F6000B9603B60BB1D1A80BB68002B01D10723A1
:107F700029E0BB68181CFFF73FFF031C0122534098
:107F8000DBB2002B01D007231DE0114BBA681A6049
:107F9000104BBA1D12881A800F4B3A681A60FA68A3
:107FA0000E4B101C191CFFF723FF031C7B617B6920
:107FB000002B01D07B6906E0094B01221A701620C4
:107FC000FFF70EFF031C181CBD4606B080BDC0465F
:107FD0005C2A0020602A0020582A00201D7E010013
:107FE000622A002080B582B000AF78607B68002BE9
:107FF00001D10E2303E0044B7A681A600023181C99
:10800000BD4602B080BDC046642A002080B582B063
:1080100000AF78607B68002B01D10E2303E0044B96
:108020007A681A600023181CBD4602B080BDC046A5
:10803000682A002080B582B000AF0F4B1B68002B70
:1080400014D00D4B1B689847031C7B607B683B601A
:108050003B68002B09D0396899235A00074B081C4C
:10806000111C1A1CFEF7D6F802E001E0FFF7EAFE49
:10807000BD4602B080BDC046582A002048B8010065
:1080800080B584B000AFF860B9607A600B4A7B6855
:10809000101C191C7F2203F017F8084A7F230021C7
:1080A000D154BB689AB2064B1A80064BFA681A6024
:1080B000034B1B88034B1B6872B6FEE76C2A00203B
:1080C000EC2A0020F02A002075DF7047181CC046FB
:1080D00076DF7047181CC0467ADF7047181CC04610
:1080E0007BDF7047181CC04680B582B000AF786057
:1080F0007B681B781A1C7B6801331B781B029BB2C0
:1081000013439BB29BB2181CBD4602B080BDC04653
:1081100090B585B000AF78603C1C0E347B68181CAD
:10812000FFF7E2FF031C23803B1C0E331A88012358
:1081300013405A1E9341DBB2181CBD4605B090BDDA
:1081400080B582B000AF78607B685A88084B1B8886
:108150009A4207D37B685A88054B5B889A4201D8BC
:10816000012300E00023181CBD4602B080BDC046BC
:10817000102B002080B586B000AF7860294B1A889C
:10818000294B9A424BD0294B1B780133DAB2274B4B
:108190001A70274B1A7B254B1B789A4216D3214B1A
:1081A0001A88244B101C191CFFF78EFF031C7B61DF
:1081B0007B69002B09D01E4B9B69002B05D01C4B03
:1081C0009B697A69101C984729E028E0174B002228
:1081D0001A70174B1B7C002B13D0124B1B88181CDA
:1081E0003B21FFF775FF031C3B613B69002B08D067
:1081F0000F4B9B69002B04D00D4B9B693A69101CF7
:1082000098470B4B5B69002B09D03B1C0C330022B9
:108210001A70074B5B693A1C0C32101C9847BD461C
:1082200006B080BD1A2B0020FFFF0000182B002095
:10823000F42A0020102B002090B585B000AF7860A4
:10824000214B7A6813CA13C313CA13C312681A6086
:108250001E4B00221A707B681B68002B15D07B68B0
:108260001B681B4A111C1A1C0823081C111C1A1C11
:1082700002F09AFE164B181CFFF72EFF031CFB6042
:10828000FB68002B0CD0FB6819E0114B181CFFF7A2
:1082900027FF031CFB60FB68002B01D0FB680EE08E
:1082A0000C4B012252421A800B4B00221A700B4ACF
:1082B0000B4B101C00211A1C01F022FD031C181C82
:1082C000BD4605B090BDC046F42A0020282B0020F2
:1082D000102B00201A2B0020182B0020242B00200C
:1082E0007581010080B584B000AF284B181CFFF7E2
:1082F00027FF031C01225340DBB2002B33D0244B59
:108300001B78002B0CD0234B5B69002B2AD03B1D24
:1083100000221A701F4B5B693A1D101C98472EE013
:108320001D4B1B78002B03D11A4B5B68FB6002E0EE
:10833000184B9B68FB60194B1A68FB68101C191CD2
:10834000002201F055FD031CBB60BB68002B09D067
:10835000104B9B69002B05D00E4B9B69BA68101C13
:1083600098470CE00BE00B4B5B69002B07D03B1CE4
:1083700001221A70074B5B693A1C101C9847044B8A
:1083800000221A70BD4604B080BDC0461C2B0020E0
:10839000282B0020F42A0020182B0020242B00205A
:1083A00080B582B000AF78607B689A880B4B1A80EA
:1083B0000B497A680E23D2180823081C111C1A1CBA
:1083C00002F0F2FD074B00221A70074BDB89002BED
:1083D00001D1FFF787FFBD4602B080BD1A2B0020F8
:1083E0001C2B0020182B0020F42A002080B584B01C
:1083F00000AF78600E4B012252421A800D4B0022D2
:108400001A700D4B1B68181C01F038FD031CFB6033
:10841000FB68002B08D0094B9B69002B04D0074B4D
:108420009B69FA68101C9847BD4604B080BDC046E1
:108430001A2B0020182B0020242B0020F42A0020C7
:1084400080B584B000AF78607B680633FB60FB6862
:108450001A88144BDB899A4221D1FB681B8B022BB3
:108460001DD1FB681A33181CFFF752FE031C002BAA
:1084700002D0FFF737FF12E00B4B1B68181C01F00E
:10848000FDFC031CBB60BB68002B08D0054B9B693F
:10849000002B04D0034B9B69BA68101C9847BD465B
:1084A00004B080BDF42A0020242B002080B582B0C7
:1084B00000AF786007497A680623D2180823081CA1
:1084C000111C1A1C02F070FDFFF70CFFBD4602B034
:1084D00080BDC0461C2B002080B582B000AF786004
:1084E0007B681B88112B0DD002DC102B05D018E007
:1084F000122B11D0502B0AD013E07B68181CFFF709
:108500004FFF0EE07B68181CFFF770FF09E07B68E7
:10851000181CFFF795FF04E07B68181CFFF7C6FFE7
:10852000C046BD4602B080BD21DF7047181CC04662
:1085300020DF7047181CC04680B582B000AF78605D
:108540001D497A68131C9B009B189B00CB180022C6
:108550001A7119497A68131C9B009B189B00CB1851
:108560000022DA8014497A68131C9B009B189B0038
:10857000CB18083301225A600F497A68131C9B00FC
:108580009B189B00CB18083300229A600A497A682E
:10859000131C9B009B189B00CB18103300225A60C1
:1085A00005497A68131C9B009B189B00CB1800227E
:1085B0001A81BD4602B080BD2C2B002080B582B050
:1085C00000AF00237B600A4B5B78002B0BD000F0E0
:1085D000B9FA031C7B607B68002B04D07B68112BED
:1085E00001D100237B607B68181CBD4602B080BDB2
:1085F0002C2B0020B0B586B002AF7860254B1B78DD
:108600001A1C391C0F312348131C9B009B189B001C
:10861000C3181B790B701F4B1B781A1C1D49131CA8
:108620009B009B189B00CB1808335A681A4B120109
:10863000D358BB60174B1B781A1C131C9B009B184C
:108640009B001A1C0832134BD318191D114B1B78B1
:108650001A1C1048131C9B009B189B00C318103356
:108660005D680C4B1B781A1C0A48131C9B009B1856
:108670009B00C318DB88181C3B1C0F331A787B68DF
:108680000090BC68081C111C1A1C2B1CA047BD467E
:1086900004B0B0BD2C2B0020042C002080B586B087
:1086A00000AF786000237B616C4B9B78002B00D17E
:1086B000D1E06A4B00229A70694B1B78082B16D1C7
:1086C0007B68022B03D1664B00221A7002E0654BD7
:1086D00000221A70FFF772FF031C7B617B69002B7D
:1086E00004D07B69181CFFF785FFB4E0B3E07B681A
:1086F000022B03D0032B00D1A9E0ACE0574B1B7831
:108700001A1C131C9B009B189B00544A9B18043393
:108710003B61554B1B8801339AB2534B1A803B691E
:108720001B78022B08D1504B1B889A023B695B884F
:108730009A4201DB012200E000223B1C0F331A7039
:10874000197801220A401A703B691B78052B05D164
:10875000434B1B78072B01D1012200E000223B1C78
:108760000E331A70197801220A401A703B691B787F
:10877000042B05D13A4B1B78072B01D1012200E0D5
:1087800000223B1C0D331A70197801220A401A701E
:108790003B691B78042B0CD1334B1B889A023B6935
:1087A0005B889A4205DB2E4B1B78002B01D10122FE
:1087B00000E000223B1C0C331A70197801220A4099
:1087C0001A703B1C0E331B78002B0ED13B1C0D3353
:1087D0001B78002B09D13B1C0C331B78002B04D1D8
:1087E0003B1C0F331B78002B24D01D4B00221A702A
:1087F0007B69181CFFF7FEFE184B1B78181CFFF74F
:108800009BFE194B00221A80144B5B78013BDAB2B5
:10881000124B5A70114B1B780133DAB20F4B1A709E
:108820000E4B1B78092B05D90C4B1B780A3BDAB28F
:108830000A4B1A70FFF7C2FE031C7B617B69002B99
:1088400004D07B69181CFFF7D5FE04E003E00D207F
:10885000FFF7D0FEC046BD4606B080BD2C2B0020E1
:10886000032C0020022C0020002C002090B587B0A3
:1088700000AFF860B9607A603B6003237B61AE4B68
:108880001B78002B0CD17B68002B06D13B68002B9A
:1088900003D1A94B02221A7002E0A74B01221A70E1
:1088A000A54B1B78062B00D93FE19A00A34BD318A8
:1088B0001B689F46A24B5B6901330CD0A04B5A69E1
:1088C00080235B051B699BB2101C191C02F0E8FA9F
:1088D000031C013B03E080235B055B69013B8022B5
:1088E0005205126992B25343191C80235B051B6920
:1088F0009BB2BA6853431A1C80235B051B699BB269
:108900009B089BB2081C111C1A1CFFF70DFE031CD0
:108910007B617B69002B03D1874B02221A7005E132
:1089200004E1BB68181CFFF703FE031C7B617B6935
:10893000002B19D17B68002B12D13B68002B0BD187
:10894000FB681B78042B03D17B4B07221A700BE0CA
:10895000794B05221A7007E0774B04221A70E5E084
:10896000754B03221A70E1E0E0E080235B051B6990
:108970009BB2BA6853431C1C714B5B6901330CD02A
:108980006F4B5A6980235B051B699BB2101C191C35
:1089900002F086FA031C013B03E080235B055B6960
:1089A000013B80225205126992B253431A1C7B6824
:1089B000201C111C1A1CFFF7B7FD031C7B617B698F
:1089C000002B12D13B68002B0BD1FB681B78042BCA
:1089D00003D1594B06221A7007E0574B05221A7033
:1089E000A4E0554B04221A70A0E09FE080235B05B1
:1089F0001B699BB2BA685A437B689B00D218FB681C
:108A00005B88D3181C1C4E4B5B6901330CD04C4B5C
:108A10005A6980235B051B699BB2101C191C02F06C
:108A20003FFA031C013B03E080235B055B69013BCC
:108A300080225205126992B25A437B689B00D21879
:108A4000FB685B88D3181A1C3B68201C111C1A1C7D
:108A5000FFF76AFD031C7B617B69002B0BD1FB6870
:108A60001B78042B03D1344B06221A7003E0324BDF
:108A700005221A705AE059E080235B051B699BB2FE
:108A8000BA685A437B689B00D318191CFB681A69A3
:108A9000FB685B889B089BB2081C111C1A1CFFF723
:108AA00043FD031C7B617B69002B0DD17B68002B90
:108AB00006D13B68002B03D11F4B07221A7003E03D
:108AC0001D4B06221A7031E030E01D4B5B6901330B
:108AD0000CD01B4B5A6980235B051B699BB2101C91
:108AE000191C02F0DDF9031C013B03E080235B0548
:108AF0005B69013B80225205126992B25A4380237E
:108B00005B051B699BB2101C191C02F0C9F9031C00
:108B1000181CFFF70DFD031C7B617B69002B03D143
:108B2000054B07221A7001E000E0C0467B69181C63
:108B3000BD4607B090BDC046032C002070B80100B0
:108B40000010001080B58EB000AF0F237B637D4B0B
:108B50001B781A1C131C9B009B189B00794A9B18BE
:108B600004333B633B6BDB68FB623B6B1B78042B82
:108B70003AD0052B00D1A6E0022B00D0D6E03B6B0B
:108B80001B69BB62704B1B889B027B623B6B5B88E3
:108B90001A1C7B6AD31A3B62BA6A7B6AD318BB621F
:108BA0003B6B9B881A1C7B6AD318FA6AD318FB624A
:108BB0003A6A664B9A420BD8F96A3B6A9B08BA6AD2
:108BC000081C111C1A1CFFF7AFFC031C7B63ADE0F3
:108BD000F96ABA6A80235B00081C111C1A1CFFF793
:108BE000A3FC031C7B63A1E03B6B9A683B1C1E3318
:108BF000574912018A18083212881A803B6B9A680A
:108C00003B1C1C33524912018A18083252881A80C0
:108C10003B6B9B684E4A1B01D3185B68BB61BA690A
:108C2000FB6A9A420AD13B1C1E331B883A1C1C3239
:108C300012885A433B6B5B889A4203D03B6B9B681C
:108C4000022B14D180235B051B699BB2F86A191CA7
:108C500002F026F9031C1A1C3B4B1B88D3187B61BE
:108C60007B69181CFFF764FC031C7B635EE08023B8
:108C70005B051B699BB2F86A191C02F011F9031C11
:108C80007B6180235B051B699BB27A695343FA6A57
:108C9000D31A9B083B617B695A1C80235B051B69C7
:108CA0009BB25A433B6B5B88191CFB6ACB18D31AE7
:108CB0009B08FB60386B79693A69FB68FFF7D6FD62
:108CC000031C7B6332E080235B051B699BB2F86A5F
:108CD000191C02F0E5F8031CBB603B6B9B881A1C57
:108CE000FB6AD21880235B051B699BB2B9684B43B2
:108CF000D31A9B087B60BB685A1C80235B051B69E9
:108D00009BB25A433B6B9B88191CFB6AC9183B6B8F
:108D10005B88CB18D31A9B083B60386BB9687A68BC
:108D20003B68FFF7A3FD031C7B63C0467B6B002BF6
:108D300002D1044B01229A707B6B181CBD460EB009
:108D400080BDC0462C2B0020002C0020FF0300001B
:108D5000042C002080B582B000AF78607A680323CD
:108D600013405A425341DBB2181CBD4602B080BDCD
:108D700080B582B000AF021CFB1D1A70064BFA1DB5
:108D80001278111C1F220A400121081C9040021C6D
:108D90001A60BD4602B080BD00E100E080B582B03F
:108DA00000AF021CFB1D1A70074AFB1D1B78191C23
:108DB0001F230B400121081C9840031C191C802311
:108DC000D150BD4602B080BD00E100E080B582B068
:108DD00000AF021CFB1D1A70084AFB1D1B78191CF2
:108DE0001F230B400121081C9840031C191C8023E1
:108DF0005B00D150BD4602B080BDC04600E100E03E
:108E000080B582B000AF021CFB1D1A70084AFB1D22
:108E10001B78191C1F230B400121081C9840031CC0
:108E2000191CC0235B00D150BD4602B080BDC046B6
:108E300000E100E0B0B582B000AF021C3960FB1D5C
:108E40001A70FB1D1B787F2B32D93049FB1D1B7814
:108E50001A1C0F231340083B98082C4AFB1D1B7853
:108E60001C1C0F232340083B9B0806339B00D31890
:108E70005B68FA1D1278141C03222240D200FF24E2
:108E8000251C95402A1CD2431A403B689C01FF23B5
:108E90001C40FB1D1B781D1C03232B40DB00251CE5
:108EA0009D402B1C1A43831D9B00CB185A6029E060
:108EB000174BFA1D127852B292081549F81D007826
:108EC00040B28008C03080004158F81D0078041C72
:108ED00003202040C000FF24251C8540281CC043DF
:108EE000084039688C01FF210C40F91D09780D1CE0
:108EF00003212940C900251C8D40291C0143C03293
:108F00009200D150BD4602B0B0BDC04600ED00E0B9
:108F100000E100E080B582B000AF021CFB1D1A70BA
:108F2000FB1D1B787F2B16D9164AFB1D1B78191CBD
:108F30000F230B40083B9B0806339B00D3185A684D
:108F4000FB1D1B78191C03230B40DB00DA40FF23B9
:108F500013409B0911E00C4BFA1D127852B2920893
:108F6000C0329200D258FB1D1B78191C03230B4002
:108F7000DB00DA40FF2313409B09181CBD4602B0FA
:108F800080BDC04600ED00E000E100E080B582B0A9
:108F900000AF7860C046C046C046C046C046C04626
:108FA000C046C046C046C046C046C046C046C04691
:108FB0007B68013B7B60002BECD1BD4602B080BDDD
:108FC00080B582B000AF0C4B5B68DB05DB0D7B60CE
:108FD0007B68002B0BD07B68103B3B603B68DBB2AF
:108FE0005BB2181CFFF796FF031CDBB200E0042302
:108FF000181CBD4602B080BD00ED00E080B582B017
:1090000000AF7860054AA123DB007968D1501120B8
:109010000321FFF70FFFBD4602B080BD00100140E5
:1090200080B500AF0E4AD1239B0080214902D15068
:109030000B4AC1239B0080214902D1501120FFF728
:10904000DFFE1120FFF794FE054B01221A602F204E
:10905000FFF79CFF034B01221A70BD4680BDC0463E
:10906000001001403C2C002080B500AF1120FFF71C
:1090700095FE104AD2239B0080214902D1500D4A0F
:10908000C2239B0080214902D1500A4B01225A6021
:109090002F20FFF77BFF074B01229A60064B00222F
:1090A0001A602F20FFF772FF044B00221A70BD4692
:1090B00080BDC04600100140282C00203C2C002020
:1090C00080B500AF024A034BD358181CBD4680BD83
:1090D000001001400405000080B582B000AF786048
:1090E00039607A683B68D31A1B021B0A181CBD46FC
:1090F00002B080BD80B582B000AF7860034AA8237B
:10910000DB007968D150BD4602B080BD001001403F
:1091100080B586B000AF78604C4B19687A68131C34
:10912000DB009B189B00CB18BB60494B1B680133CD
:1091300003D1474B7A681A6084E0BB685968434B97
:109140001868434B1A68131CDB009B189B00C3185C
:109150005B6899421ED83D4B19683D4B1A68131C39
:10916000DB009B189B00CA18384B1868384B1968ED
:109170000B1CDB005B189B00C3185968BB685B685D
:10918000CB1A5360324B1A68BB681A62304B7A684C
:109190001A6057E0BB685B68FB602D4B1B687B6106
:1091A0002B4B1B683B6117E0284B19683A69131C6D
:1091B000DB009B189B00CB185B68FA68D31AFB6036
:1091C0003B697B61214B19683A69131CDB009B18D2
:1091D0009B00CB181B6A3B613B6901330BD01B4BD7
:1091E00019683A69131CDB009B189B00CB185A685E
:1091F000FB689A42D8D33B69013313D0134B1968EB
:109200003A69131CDB009B189B00CA180F4B1868A7
:1092100039690B1CDB005B189B00C3185968FB689D
:10922000CB1A5360BB68FA685A60BB683A691A6225
:10923000064B19687A69131CDB009B189B00CB183E
:109240007A681A62BD4606B080BDC046182C002060
:10925000242C002080B586B000AF7860394B1B68A5
:109260007B617B693B6110E03A697B689A4200D17F
:109270000EE03B697B61344B19683A69131CDB00D3
:109280009B189B00CB181B6A3B613B690133EBD1F8
:109290003B69013300D152E07A693B699A4211D1AE
:1092A000294B1968274B1A68131CDB009B189B007D
:1092B000CB181A6A234B1A60224B1B68013301D169
:1092C000FFF7D2FE204B19683A69131CDB009B188C
:1092D0009B00CB185B68FB601B4B19687A69131CF9
:1092E000DB009B189B00CA18174B186839690B1CC8
:1092F000DB005B189B00C3181B6A1362124B1968D2
:109300007A69131CDB009B189B00CB181B6A3B611E
:109310003B69013313D00C4B19683A69131CDB000D
:109320009B189B00CA18084B186839690B1CDB0096
:109330005B189B00C3185968FB68CB185360BD4687
:1093400006B080BD242C0020182C002080B500AF72
:109350001120FFF73BFDBD4680BDC04680B500AF84
:109360001420FFF733FDBD4680BDC04680B584B0F4
:1093700000AF7860144B1B68002B1BD0124B1A688F
:109380007B6899697B68DB69081C191C9047031C82
:10939000FB60FB68BB60BB68002B0AD0B968642324
:1093A0001A1CFF32094B081C111C1A1CFCF732FF57
:1093B00006E005E07B689A697B68DB69181C9047CA
:1093C000BD4604B080BDC046382C00208CB80100DA
:1093D00080B584B000AF2B4B1B6801334FD0002306
:1093E0007B60FFF76DFE021C274B1B68101C191CCD
:1093F000FFF772FE031CBB60224B1B68FB601FE083
:10940000224B1968FA68131CDB009B189B00CB18D1
:109410003B603B685A68BB689A4200D913E03B68DE
:109420005B68BA68D31ABB603B685B687A68D3181C
:109430007B603B681B6AFB603B68181CFFF796FF6C
:10944000FB680133DCD1124B1A78124B1B789A421D
:109450000CD1104B1B780133DAB20E4B1A700D4B46
:109460001B78022B02D10B4B00221A70094B1B7880
:109470001A1C094B92007968D150FFF76FFFBD4667
:1094800004B080BD242C0020282C0020182C0020A3
:10949000342C0020352C00202C2C002080B582B0EC
:1094A00000AF7860184B1A78184B1B789A4223D07B
:1094B000154B1B780133DAB2134B1A70124B1B7821
:1094C000022B02D1104B00221A700F4B1B781A1C72
:1094D0000F4B9200D2587B681A607B681A680D4B5C
:1094E0001B68D2180B4B1A600A4B1B681B021A0A26
:1094F000084B1A60012303E07B6800221A600023F6
:10950000181CBD4602B080BD342C0020352C002034
:109510002C2C0020282C002080B586B000AF434BB7
:109520001B683B613B1C1733414A12781A7068E094
:10953000404B1A683B1C17331B78DB00D318FB60C9
:109540003B1C1633FA6812781A7053E0FB685968AE
:109550003B1C16331A78131C5B009B18DB00CB18DE
:10956000BB603B1C16331A783B1C163301321A7051
:10957000FB689B783A1C163212789A4203D13B1C46
:10958000163300221A70BB681B78022B02D0032B03
:109590002AD02FE0284B1968BB685A68131CDB00DF
:1095A0009B189B00CB187B607B681B7D002B08D031
:1095B000BB685B68181CFFF74DFE7B6800221A75BC
:1095C00018E017E01C4B1968184B1A68131CDB00D5
:1095D0009B189B00CB183B603B6800221A753B68C8
:1095E0001A6A124B1A6000E0C046104B1B68013328
:1095F000E8D1C046FB685B783A1C163212789A4272
:10960000A4D13B1C17331B783A1C1732591E11701A
:10961000002B8DD1054B1A683B69D31A5A1E934112
:10962000DBB2181CBD4606B080BDC046242C00200D
:109630001C2C0020202C0020182C002080B588B085
:1096400000AFF860B9607A600023FB6142E0254B0F
:109650001968254B1A68131CDB009B189B00CB185C
:10966000BB61BB695A68FB689A4206D9BB695A68F4
:10967000FB68D21ABB695A6030E0BB695B68FA6864
:10968000D31AFB60BB695B68FA69D318FB61BB69DD
:1096900000225A60BB6900221A75134B1B687B615C
:1096A000BB691A6A104B1A60BB691B69002B11D089
:1096B000BA68FB69D3181B021A0ABB699A60BB69B6
:1096C0001A69BB69DA607B681A68BB691A627B68D1
:1096D0007A691A60044B1B680133B8D1BD4608B0E3
:1096E00080BDC046182C0020242C002080B58AB0F4
:1096F00000AF7860624B1B68BB613B1C2733614A3B
:1097000012781A70A7E0604B1A683B1C27331B784D
:10971000DB00D3187B6193E07B6801330ED07B685C
:109720003B625A4B19683A6A131CDB009B189B007A
:10973000CB18FB61FB691B6A7B603EE07B69596863
:109740007B691B781A1C131C5B009B18DB00CB1871
:109750003B617B691B780133DAB27B691A707B69E4
:109760001A787B699B789A4202D17B6900221A7031
:109770003B695B683B62454B19683A6A131CDB0026
:109780009B189B00CB18FB613B691B78012B03D115
:10979000FB691B7D002B00D052E03B699A68FB6996
:1097A0009A603B69DA68FB69DA603B691A69FB69B0
:1097B0001A613B695A69FB69DA61FB699A68344B43
:1097C0001B68D31A1B021A0A324B9A420ED8FB6945
:1097D0009A682F4B1B68101C191CFFF77DFC021C9C
:1097E000FB69DB68D218FB695A6018E0284B1A68DD
:1097F000FB699B68101C191CFFF76EFC031CFB60C7
:10980000FB69DA68FB689A4206D9FB69DA68FB688B
:10981000D21AFB695A6002E0FB6900225A60FB69B8
:1098200000229A60FB690022DA60FB6901221A7546
:10983000FB69012252421A623B6A181CFFF768FC5E
:109840007B68013300D067E77B691A787B695B78B6
:109850009A4200D060E73B1C27331B783A1C273222
:10986000591E1170002B00D04DE7054B1A68BB69DB
:10987000D31A5A1E9341DBB2181CBD460AB080BDF4
:10988000242C00201C2C0020202C0020182C002030
:10989000282C0020FEFF7F0090B589B000AF7860D3
:1098A0002A4B1B6801334CD0294B1968274B1A6887
:1098B000131CDB009B189B00CB185B68FB61FFF758
:1098C000FFFB031CBB61234B1B687B61BA697B698F
:1098D000101C191CFFF700FC031C03333B611E4BDB
:1098E0001B7801225340DBB2002B01D0FFF798FB1D
:1098F000FA693B69934200D2131C7A69D3187B61E1
:109900007B691B021B0A7B617B69181CFFF7F2FB5A
:10991000FFF7D6FB031CFB60FA68BB69101C191C1F
:10992000FFF7DAFB031CDC1C7A69BB69101C191CED
:10993000FFF7D2FB031C9C4202D9FFF707FD02E0B0
:1099400001E0FFF791FBBD4609B090BD242C00203B
:10995000182C0020282C00203C2C002090B587B02B
:1099600000AF01235B427B601D4B1B683B611D4BBD
:109970001B68FB603C1C0B343B1C181CFFF78EFD66
:10998000031C23703C1C1734FFF7C6FD031C237017
:109990003B1C0B331B78002B0BD039683A693B1DFD
:1099A000081C111C1A1CFFF749FE3B1C173301222F
:1099B0001A707B68181CFFF799FE031C002B03D05C
:1099C0003B1C173301221A703B1C17331B78002BEA
:1099D00003D0FB68181CFFF75FFFBD4607B090BDC2
:1099E000282C0020242C002080B582B000AF7860A5
:1099F00039603B68DAB27B685A70BD4602B080BD00
:109A000080B584B000AF786039607B685B780133E3
:109A1000FB607B689B781A1CFB689A4201D100238B
:109A2000FB607B681B781A1CFB689A4201D10023FB
:109A30000EE03B68FA681A607B6859687B685B785F
:109A40001A1C131C5B009B18DB00CB18BB60BB68A7
:109A5000181CBD4604B080BD80B586B000AFF8606C
:109A6000B9607A603B601B4B1A68FB68DB00D21858
:109A70003B1C1033101C191CFFF7C2FF031C7B6139
:109A80007B69002B01D1042320E07B6901221A703D
:109A90007B69BA685A60FFF713FB021C7B699A6006
:109AA0007B697A68DA607B693A681A617B693A6A2D
:109AB0005A61084B1A68FB68DB00D2183B69101C1E
:109AC000191CFFF791FFFFF749FC0023181CBD4646
:109AD00006B080BD202C002080B584B000AF786037
:109AE0003960144B1A687B68DB00D2183B1C0833C2
:109AF000101C191CFFF784FF031CFB60FB68002B84
:109B000001D1042312E0FB6802221A70FB683A6854
:109B10005A60084B1A687B68DB00D218BB68101CBF
:109B2000191CFFF761FFFFF719FC0023181CBD4645
:109B300004B080BD202C002080B500AF104AA023C7
:109B40005B000021D1500E4AA2235B000021D150BE
:109B50000B4AA4235B000021D150094AA6235B00D5
:109B60000021D150064A80235B000021D150044AD5
:109B700082235B000021D150FFF72AFCBD4680BD47
:109B80000010014080B500AFFFF7E8FEBD4680BD84
:109B900080B586B000AFF8607B603B1C0B3319705A
:109BA0003B1C0A331A707B68181CFFF7D3F8031CA0
:109BB00001225340DBB2002B01D0072389E07B68F0
:109BC000002B01D1072384E0FFF74EFA434B3A6A9A
:109BD0001A60434B3A1C0B3212781A70414B7A6868
:109BE0001A6000237B6116E03E4B19687A69131CEA
:109BF000DB009B189B00CB1800221A70394B1968A8
:109C00007A69131CDB009B189B00CB1800221A7585
:109C10007B6901337B613B1C0B331A787B699A4269
:109C2000E2DC3B1C0B331A78131CDB009B189B00F7
:109C30007A68D3187B602C4B03221A702B4B7A68FE
:109C40001A607B6818337B6000237B6120E0274B20
:109C50001A687B69DB00D3183B613B6900221A70EC
:109C60003B6900225A703B693A1C0A3212789A709A
:109C70003B697A685A603B1C0A331A78131C5B00F4
:109C80009B18DB007A68D3187B607B6901337B61AA
:109C90007B69022BDBDD164B012252421A60154B09
:109CA00000221A70144B00221A701420FFF7A8F833
:109CB00014200321FFF7BEF81420FFF759F8FB68C2
:109CC000181CFFF79BF9FFF7FBF9021C0B4B1A60FE
:109CD0000023181CBD4606B080BDC046382C0020AD
:109CE000142C0020182C00201C2C0020202C0020DC
:109CF000242C0020342C0020352C0020282C00207F
:109D000080B586B000AFF8607A603B1C0B330A1C4C
:109D10001A70284B1B68002B01D1082346E07B6892
:109D2000002B01D1072341E0FB68002B01D1072361
:109D30003CE000237B6132E01E4B19687A69131CFA
:109D4000DB009B189B00CB181B78002B24D1194BF0
:109D500019687A69131CDB009B189B00CB18012241
:109D60001A70144B19687A69131CDB009B189B004E
:109D7000CB183A1C0B3212785A700E4B19687A695C
:109D8000131CDB009B189B00CB187A689A617A69D8
:109D9000FB681A60002309E07B6901337B61064B95
:109DA0001B781A1C7B699A42C6DC0423181CBD462A
:109DB00006B080BD182C0020142C002080B582B085
:109DC00000AFFFF7FDF8031C012B02D0032B03D0DB
:109DD00005E000237B6005E001237B6002E00223B5
:109DE0007B60C0467B68181CBD4602B080BDC04683
:109DF00090B589B002AFF860B9607A601D4B1B68FE
:109E0000002B01D1082330E01B4B1B781A1CFB6888
:109E10009A4202D9BB68042B01D8072325E0154BD1
:109E20001968FA68131CDB009B189B00CB181B7881
:109E3000012B01D0082318E00E4B1968FA68131C97
:109E4000DB009B189B00CB185B78012B01D1BB6812
:109E500000E000237B61FFF7B1FFF968BA687B6916
:109E60007C680094FFF7F8FD031C181CBD4607B082
:109E700090BDC046182C0020142C002080B582B064
:109E800000AF7860134B1B68002B01D108231DE045
:109E9000114B1B781A1C7B689A4201D8072315E0E6
:109EA0000C4B19687A68131CDB009B189B00CB18BD
:109EB0001B78012B01D0082308E0FFF77FFF021C6D
:109EC0007B68101C191CFFF707FE031C181CBD46FD
:109ED00002B080BD182C0020142C002080B582B068
:109EE00000AF78607A68032313405A425341DBB2D3
:109EF000181CBD4602B080BD80B582B000AF021C08
:109F0000FB1D1A70FB1D1B789AB2074B1B889A42E7
:109F100004D2FB1D1B780133DBB200E00023181CC8
:109F2000BD4602B080BDC0464C2C002080B584B038
:109F300000AF3A60BB1D021C1A803B1D0A1C1A8030
:109F40003B1D1B8801339AB23B1C0E33D2001A8092
:109F50003B68181CFFF7C2FF031C01225340DBB211
:109F6000002B01D0072318E00E4B3A681A603B1C07
:109F70000E331B883A68D2180B4B1A600B4B002229
:109F80001A700B4B00221A700A4BBA1D12881A80E5
:109F9000094B3A1D12881A800023181CBD4604B0D4
:109FA00080BDC046402C0020442C0020492C0020BD
:109FB000482C00204A2C00204C2C002080B586B074
:109FC00000AFF860B9607A6005237B611E4B1B7897
:109FD000DAB21E4B1B78DBB29A4230D01B4B1B7897
:109FE000DAB23B1C12331A80184B1B78DBB2181CF8
:109FF000FFF782FF031C1A1C144B1A70144B1A68CB
:10A000003B1C12331B88134909884B43D218FB6849
:10A010001A60114B1A683B1C12331B88DB00D318E3
:10A020009A88BB681A800C4B1A683B1C12331B8839
:10A03000DB00D3181A687B681A6000237B617B6998
:10A04000181CBD4606B080BD492C0020482C0020BD
:10A05000442C00204A2C0020402C002080B584B0E5
:10A0600000AF07E07B68F9683A1C0A321288081CC6
:10A07000111C9847391C0C313A1C0A323B1D081C34
:10A08000111C1A1CFFF79AFF031C002BEAD0BD46D7
:10A0900004B080BD80B582B000AF021CFB1D1A70F9
:10A0A000064BFA1D1278111C1F220A400121081CC0
:10A0B0009040021C1A60BD4602B080BD00E100E085
:10A0C00080B582B000AF021CFB1D1A70084AFB1D50
:10A0D0001B78191C1F230B400121081C9840031CEE
:10A0E000191CC0235B00D150BD4602B080BDC046E4
:10A0F00000E100E0B0B582B000AF021C3960FB1D8A
:10A100001A70FB1D1B787F2B32D93049FB1D1B7841
:10A110001A1C0F231340083B98082C4AFB1D1B7880
:10A120001C1C0F232340083B9B0806339B00D318BD
:10A130005B68FA1D1278141C03222240D200FF240F
:10A14000251C95402A1CD2431A403B689C01FF23E2
:10A150001C40FB1D1B781D1C03232B40DB00251C12
:10A160009D402B1C1A43831D9B00CB185A6029E08D
:10A17000174BFA1D127852B292081549F81D007853
:10A1800040B28008C03080004158F81D0078041C9F
:10A1900003202040C000FF24251C8540281CC0430C
:10A1A000084039688C01FF210C40F91D09780D1C0D
:10A1B00003212940C900251C8D40291C0143C032C0
:10A1C0009200D150BD4602B0B0BDC04600ED00E0E7
:10A1D00000E100E080B582B000AF78607A680323C8
:10A1E00013405A425341DBB2181CBD4602B080BD39
:10A1F00080B586B000AF7860396000237B6145E0B0
:10A200007B690122111C99400B1CFB603B68FA68BA
:10A21000134038D07B68DB68FA68134009D180238B
:10A220009B023B617B68DA68FB681A437B68DA60F3
:10A2300009E0C0239B023B617B68DB68FA68D2437C
:10A240001A407B68DA60A023DB05A022D205796979
:10A25000C131FF31890089580F4A11407A69C132F2
:10A26000FF329200D150A023DB05A022D2057969EC
:10A27000C131FF31890089583A6911437A69C13285
:10A28000FF329200D1507B6901337B617B691F2BC8
:10A29000B6D9BD4606B080BDFFFFFCFF80B588B0D3
:10A2A00000AFA023DA05A223DB00D358BB613E4AEE
:10A2B000BE235B000021D1503B1C1F3300221A70CB
:10A2C00068E03A4B19683B1C1F331A78131C9B003B
:10A2D0009B189B00CB183B613B1C1F331B78012252
:10A2E000111C99400B1C1A1C314B1B6813404AD09F
:10A2F0003B69DB68DA43BB695A403B691B68134022
:10A300007B613A697B69101C191CFFF771FFA02360
:10A31000DA05A223DB00D258BB695340FB60FB681F
:10A32000002B16D0BA69FB681343BB613B69DB683D
:10A33000DA43BB695A403B691B681340BB603A690A
:10A34000BB68101C191CFFF753FF7A69BB681343E5
:10A350007B61BB69DA433B699B6813407A691340B0
:10A360007B603B695B68BA6913407A6913403B6064
:10A370003A687B68134306D03B691B6939687A6881
:10A38000081C111C98473B1C1F331A783B1C1F33B9
:10A3900001321A70074B1B783A1C1F3212789A420E
:10A3A0008FD3BD4608B080BD00600040582C00200F
:10A3B000502C0020552C002080B582B000AF021C2C
:10A3C0003960FB1D1A703B68002B01D1072337E071
:10A3D0003B68181CFFF7FEFE031C01225340DBB252
:10A3E000002B01D007232BE0174B3A681A60174B5C
:10A3F000FA1D12781A70164B00221A70154B0022A3
:10A400001A60114B1968114B1B781A1C131C9B0006
:10A410009B189B00081C00211A1C00F007FE0E4A26
:10A42000C2239B0001214942D1500620FFF748FE7C
:10A4300006200121FFF75EFE0620FFF72BFE00231A
:10A44000181CBD4602B080BD582C0020542C0020A2
:10A45000552C0020502C00200060004080B500AF3B
:10A46000BD4680BD80B588B000AFF860B9607A6045
:10A47000FFF7F4FF8349FA68131C5B009B18DB00AD
:10A48000CB1828335A6803231340022B39D07D4957
:10A49000FA68131C5B009B18DB00CB1828331B6881
:10A4A0007B617849FA68131C5B009B18DB00CB18B2
:10A4B00020335B687A69D31A013BFB61FB69002B8F
:10A4C0000BDA7049FA68131C5B009B18DB00CB1891
:10A4D00020331B68FA69D318FB617A68FB699A42DA
:10A4E0000FDD6849FA68131C5B009B18DB00CB1872
:10A4F00028335A680323134001D10023BDE0FB69D0
:10A500007B607B68002B01D10023B6E00023BB6198
:10A510005C49FA68131C5B009B18DB00CB182833DE
:10A520001B687B615749FA68131C5B009B18DB00B2
:10A53000CB1820335B687A69D31A013BFB61FB6956
:10A54000002B0BDA4F49FA68131C5B009B18DB00E9
:10A55000CB1820331B68FA69D318FB614949FA68A4
:10A56000131C5B009B18DB00CB182033196845488F
:10A57000FA68131C5B009B18DB00C31820335B6870
:10A58000CA1AFB699A4213DC3E49FA68131C5B0045
:10A590009B18DB00CB18203319683A48FA68131C63
:10A5A0005B009B18DB00C31820335B68CB1A00E00C
:10A5B000FB69FB617B68FA69934200DD131CFB6158
:10A5C0003049FB685A1C131C5B009B18DB00CB183E
:10A5D00059682C48FA68131C5B009B18DB00C318F1
:10A5E00020335B68C918FB69BA68081C111C1A1C67
:10A5F00000F0DAFCFB69BA69D318BB61FB69BA6881
:10A60000D318BB60FB697A68D31A7B601D49FA686E
:10A61000131C5B009B18DB00CB1820335A68FB69C6
:10A62000D1181848FA68131C5B009B18DB00C3188C
:10A63000203359601349FA68131C5B009B18DB0038
:10A64000CB18203359680F48FA68131C5B009B181D
:10A65000DB00C31820331B68994209D10949FA6805
:10A66000131C5B009B18DB00CB18203300225A60C0
:10A670007B68002B00D04BE7BB69181CBD4608B0B7
:10A6800080BDC0460420002080B584B000AF786053
:10A690000A1CFB1C1A707B689B68FB60FB685A1CD9
:10A6A0007B685B689A420FDC7B681A68FB68D3188A
:10A6B000FA1C12781A70FB685A1C7B689A607B68D7
:10A6C000DB685A1C7B68DA607B689A687B685B6829
:10A6D0009A4217D17B6819697B681A687B689B6806
:10A6E000081C111C1A1CFFF7BDFE021C7B689B682E
:10A6F0009A4204D07B6801225242DA6002E07B6811
:10A7000000229A60BD4604B080BDC04680B58AB0C4
:10A7100000AFF860B9607A603B6001237B62BB6880
:10A720003B620123FB6108E0386A796800F0B8FBFE
:10A73000031C3B62FB690133FB613A6A7B689A4206
:10A74000F2D23A68FB699A4201D93B68FB617A6BA5
:10A750000123134029D13B6B002B26D07A6B0223B7
:10A76000134007D03B68002B04D13B1C1B33302225
:10A770001A7011E03B1C1B3320221A700CE0FA689F
:10A780003B1C1B331B78101C191CFFF77DFFFB685B
:10A79000DB68002B00DA62E03B6B002B05D03B6BE3
:10A7A0005A1E3A63FA699342E9D803E07B6A7A68F1
:10A7B00053437B62B868796A00F072FB031C191C72
:10A7C0007A68002391425B41D9B23A68531E3B60DC
:10A7D0000123012A00DC0023DBB20B43DBB2002B98
:10A7E000E4D1B868796A00F05BFB031C7B617B698C
:10A7F0007A6A5343BA68D31ABB601A4A7B69D31882
:10A800001B78FA68101C191CFFF73EFFFB68DB6819
:10A81000002B00DA08E0786A796800F041FB031C3D
:10A820007B627B6A002BDCD17A6B0123134016D04C
:10A830003B6B002B13D009E0FB68181C2021FFF7AD
:10A8400023FFFB68DB68002B00DA08E03B6B002B82
:10A8500005D03B6B5A1E3A63FA699342ECD8BD4669
:10A860000AB080BDB8B8010090B589B002AFF860F9
:10A87000B9607A603B60BB68DA179B1853403B6154
:10A8800001237B6108E03869796800F009FB031C4B
:10A890003B617B6901337B613A697B689A42F2D202
:10A8A0003A687B699A4201D93B687B61BB6A002B9D
:10A8B00009D0BB68002B03DBFA6A0423134002D0E3
:10A8C000BB6A013BBB62FA6A0223134002D03B68B9
:10A8D000002B1AD0FA6A0123134016D1BB6A002B51
:10A8E00013D009E0FB68181C2021FFF7CDFEFB68A0
:10A8F000DB68002B00DA52E0BB6A002B05D0BB6A94
:10A900005A1EBA627A699342ECD8BB68002B0CDA03
:10A91000BB685B42BB60FB68181C2D21FFF7B4FECF
:10A92000FB68DB68002B0EDA39E0FA6A0423134077
:10A9300009D0FB68181C2B21FFF7A6FEFB68DB681B
:10A94000002B00DA2BE0FA6A022313401DD0FA6ACA
:10A950000123134019D13B68002B16D1BB6A002B91
:10A9600013D009E0FB68181C3021FFF78DFEFB684F
:10A97000DB68002B00DA12E0BB6A002B05D0BB6A53
:10A980005A1EBA627A699342ECD8B9683B68F86893
:10A990007A68BC6A0094FC6A0194FFF7B7FEBD4672
:10A9A00007B090BD80B5A2B002AFF860B9607A6020
:10A9B0003B1C50333A1C10321A603B1C503340226F
:10A9C0005A603B1C503300229A603B1C5033FA689B
:10A9D0001A613B1C50330022DA60BB685A1CBA6013
:10A9E0003A1C7F321B7813703B1C7F331B78002B83
:10A9F00000D162E13B1C7F331B78252B00D04DE159
:10AA000000237B673B1C7F33BA6812781A703B1CAB
:10AA10007F331B782B2B18D002DC232B1DD025E095
:10AA20002D2B02D0302B08D020E07B6F0122134366
:10AA30007B67BB680133BB6017E07B6F0222134367
:10AA40007B67BB680133BB600FE07B6F042213435D
:10AA50007B67BB680133BB6007E07B6F0822134351
:10AA60007B67BB680133BB60C046CBE700233B6715
:10AA70003B1C7F33BA6812781A703B1C7F331B78FB
:10AA80002F2B14D93B1C7F331B78392B0FD8BB6875
:10AA90000133BB603A6F131C9B009B185B001A1CB0
:10AAA0003B1C7F331B78D318303B3B67E0E7002328
:10AAB000BB673B1C7F33BA6812781A703B1C7F332C
:10AAC0001B782E2B21D1BB680133BB603B1C7F332D
:10AAD000BA6812781A703B1C7F331B782F2B14D95D
:10AAE0003B1C7F331B78392B0FD8BB680133BB600D
:10AAF000BA6F131C9B009B185B001A1C3B1C7F3316
:10AB00001B78D318303BBB67E0E73B1C7F33BA6848
:10AB100012781A703B1C7F331B786C2B04D03B1CC3
:10AB20007F331B78682B07D1BB685A1CBA603A1C6C
:10AB30007F321B781370EDE7C0463B1C7F331B78D8
:10AB4000642B29D007DC582B50D0632B0FD0252B3A
:10AB500000D198E09EE0732B5DD003DC702B00D118
:10AB60007CE097E0752B2CD0782B3FD092E07B686F
:10AB70001B68191D7A6811601B68BB663B1C673334
:10AB8000BA6E1A703A1C50323B1C67331B78101C8B
:10AB9000191CFFF779FD7DE07B681B68191D7A6839
:10ABA00011601B68BB66391C5031BA6EBB6F386FC1
:10ABB0000090786F0190081C111C0A22FFF754FEC8
:10ABC00068E07B681B68191D7A6811601B68BB66AA
:10ABD000BA6EBB6F391C5031386F0090786F01909E
:10ABE000081C111C0A22FFF791FD53E07B681B68CB
:10ABF000191D7A6811601B68BB66BA6EBB6F391C81
:10AC00005031386F0090786F0190081C111C102291
:10AC1000FFF77CFD3EE07B681B68191D7A681160B8
:10AC20001B68FB66FB6E5A1CFA663A1C7F321B7867
:10AC300013703B1C7F331B78002B00D10DE03A1CB6
:10AC400050323B1C7F331B78101C191CFFF71CFD76
:10AC50003B1C5033DB68002BE4DA1BE07B681B688D
:10AC6000191D7A6811601B68BB66BB6E3A1C5032B6
:10AC70000821009100210191101C191C10220823A9
:10AC8000FFF744FD06E03B1C5033181C2521FFF75D
:10AC9000FBFCC046BB680133BB6008E03A1C503285
:10ACA0003B1C7F331B78101C191CFFF7EDFC3B1C71
:10ACB0005033DB68002B00DB8FE63B1C5033DB6836
:10ACC000002B19DD3B1C50339B68002B0AD03B1C2A
:10ACD00050339B68F9683A1C1032081C111C1A1C6E
:10ACE000FFF7C0FB3B1C5033DA683B1C50339B68BA
:10ACF000D2183B1C5033DA603B1C5033DB68181C05
:10AD0000BD4620B080BDC0460EB480B585B000AF52
:10AD100078603B1C2033FB607968FA693B1C0C337C
:10AD2000081C111C1A1CFFF73DFE031C181CBD4615
:10AD300005B080BC08BC03B01847C04680B500AF62
:10AD400000F01EF8031C002B06D00A4B0A4A1A60BA
:10AD50000A4B802212021A6000F052F8031C002BEA
:10AD600005D08023DA05C123DB000121D150BD4687
:10AD700080BDC04604050040DFFF07C0186C0040DE
:10AD800080B500AF1A4B1A68FF231340012B2AD15C
:10AD9000184B1A680F23134025D1174B1A68F0235C
:10ADA000134006D1154B1A68F023134001D101233B
:10ADB0001AE0114B1A68F0231340102B06D10F4BE9
:10ADC0001A68F023134001D101230DE00A4B1A68E1
:10ADD000F0231340302B06D1084B1A68F0231340A0
:10ADE00001D1012300E00023181CBD4680BDC046F0
:10ADF000E00F00F0E40F00F0E80F00F0EC0F00F0BF
:10AE000080B500AF0D4B1A68FF231340012B11D101
:10AE10000B4B1A680F2313400CD10A4B1A68F0230E
:10AE20001340402B06D1084B1A68F023134001D180
:10AE3000012300E00023181CBD4680BDE00F00F098
:10AE4000E40F00F0E80F00F0EC0F00F003210A48D7
:10AE500002680A430260094802680A43026008491E
:10AE6000084A094B9B1A03DD043BC858D050FBDC51
:10AE70000648804706480047240500405405004026
:10AE8000D8B8010000200020A82400203DAD01001A
:10AE9000C1600100FEE7FEE7FEE7FEE7FEE7FEE732
:10AEA000002934D00123002210B488422CD301247D
:10AEB0002407A14204D2814202D209011B01F8E712
:10AEC000E400A14204D2814202D249005B00F8E7CB
:10AED000884201D3401A1A434C08A04202D3001BF7
:10AEE0005C0822438C08A04202D3001B9C0822432A
:10AEF000CC08A04202D3001BDC082243002803D068
:10AF00001B0901D00909E3E7101C10BC7047002899
:10AF100001D00020C04307B4024802A140180290AB
:10AF200003BDC046190000000029F0D003B5FFF7AB
:10AF3000B9FF0EBC4243891A1847C0467047C04645
:10AF400010B50021041C00F0F9F8044B1868C36B1D
:10AF5000002B00D09847201C00F0FCF9CCB8010071
:10AF600070B50D4E0D4D0024AD1BAD1005D0A300E6
:10AF7000F35801349847A542F9D100F0EDF9084E95
:10AF8000084D0024AD1BAD1005D0A300F3580134CB
:10AF90009847A542F9D170BDA8240020A82400201C
:10AFA000A8240020A8240020F0B50F2A35D9031CBE
:10AFB0000B439C0735D1161C103E36093501451947
:10AFC00010350C1C031C27681F6067685F60A7684A
:10AFD0009F60E7681034DF601033AB42F3D1731C1D
:10AFE0001B01C518C9180F231340032B1BD91C1FA5
:10AFF000A4080134A4000023CE58EE500433A34229
:10B00000FAD1ED18C91803231A4005D00023CC5CEF
:10B01000EC5401339342FAD1F0BD051C002AF5D15E
:10B02000FAE7051CF2E71A1CF8E7C046F0B58307FB
:10B0300046D0541E002A42D0CEB2031C032503E0A2
:10B04000621E002C3BD0141C01335A1E16702B427A
:10B05000F6D1032C2BD9FF250D402A0215432A04D3
:10B0600015430F2C15D9271C103F3F091E1C3A0110
:10B070001036B6181A1C156055609560D5601032F0
:10B08000B242F8D101373F010F22DB191440032CE3
:10B090000DD9271FBF08BA001E1DB6181A1C20C2E2
:10B0A000B242FCD10137BF000322DB191440002C4F
:10B0B00005D01C19C9B219700133A342FBD1F0BDF0
:10B0C000141C031CC5E7C046031C0B43F0B5041C4D
:10B0D0009D0701D1032A15D8002A12D00D78013A14
:10B0E000631C4E1C2570002D1BD0311C07E00C7812
:10B0F00001335D1E013A2C700131002C11D0002A61
:10B10000F5D1F0BD0B4E0B680B4FDD199D43354259
:10B11000E2D10434251F043A04312B60032AF2D80B
:10B12000DAE79C180021002AEBD019700133A34202
:10B13000FBD1E6E780808080FFFEFEFEF0B55F4633
:10B1400056464D464446F0B4404B85B01B680290CD
:10B1500001934933FF3303930F1C0198A421490045
:10B1600042589046002A4AD00398814641464E688C
:10B17000741E41D44546A3008835ED18C620C4236B
:10B1800001365B004000B6009B4682464644C344FD
:10B19000C24408E02B1C80331B68BB4205D0043D31
:10B1A000043E013C28D3002FF4D141464A6833685D
:10B1B000013AA2422CD000223260002BEFD0404650
:10B1C0005946406801220968A240009011421DD0F2
:10B1D0005046006810421DD10298296898474146A0
:10B1E0004968009A9142B8D14A4612684245B4D1A2
:10B1F000043D043E013CD6D2154A002A0DD105B0CB
:10B200003CBC90469946A246AB46F0BD9847E6E75F
:10B210004C60D2E728689847E1E743465B684046C0
:10B22000002B0DD10368002B0ED049460B6000E0C7
:10B2300000BF4B461A6890464146002996D1DEE78A
:10B240000368C1469846F7E70023FAE7CCB8010047
:10B250000000000008B5011C00220020002300F0BF
:10B2600019F808BD38B5094B094DED1AAD1009D0D4
:10B27000013DAC00E41800E0013D23689847043C20
:10B28000002DF9D100F06EF838BDC046A82400208A
:10B29000A8240020F0B54F464646C0B498462B4B34
:10B2A000A4251B686D005C5983B0061C0F1C9146D9
:10B2B0000193002C44D065681F2D1ADD244B002B10
:10B2C00002D1012040421CE0C820400000E000BF45
:10B2D000041EF6D000254560A42301985B00C058E9
:10B2E00001992060CC50C4235B00E550C6235B006D
:10B2F000E550002E0AD16B1C0235AD0063600020C2
:10B300002F5103B00CBC90469946F0BDAB00E3183A
:10B31000882248469850C420400022181068012115
:10B32000A940084310608422520040469850022EE3
:10B33000E1D1C6225200A318186801431960DAE768
:10B340001C1C4D34FF345C51B5E7C046CCB801003D
:10B3500000000000FEE7C046F8B5C046F8BC08BCD7
:10B360009E467047F8B5C046F8BC08BC9E4670477C
:10B370004572726F7220636F6465203D20307825BE
:10B38000642C206C696E655F6E756D206973202575
:10B39000642C2066696C65206E616D652069732080
:10B3A0002573200A0D000000556E6B6E6F776E20BE
:10B3B00073746174653A202564000000496E6974F5
:10B3C00069616C697A696E67206C65642E2E2E2027
:10B3D0000A0D000031737420646F6E65210A0D0040
:10B3E000326E6420646F6E65210A0D003372642032
:10B3F000646F6E65210A0D0034746820646F6E6599
:10B40000210A0D0035746820646F6E65210A0D00F5
:10B4100036746820646F6E65210A0D0037746820E9
:10B42000646F6E65210A0D0054696D657220737436
:10B43000617274200A0D00006D61696E2E63000058
:10B44000496E697469616C697A696E672074696DA7
:10B4500065722E2E2E200A0D00000000496E6974C0
:10B4600069616C697A696E6720474150207061722A
:10B47000616D657465722E2E2E200A0D000000008D
:10B48000436F666665650000496E697469616C6941
:10B490007A696E67206164766572746973656D653B
:10B4A0006E742E2E2E200A0D000000004C656420C4
:10B4B00077726974652068616E646C65722C2064B3
:10B4C00061746120726563656976656420697320C3
:10B4D000253264200A0D000053656C6563742031C9
:10B4E0007374200A0D00000053656C65637420328C
:10B4F0006E64200A0D00000053656C656374203390
:10B500007264200A0D00000053656C65637420347A
:10B510007468200A0D00000053656C656374203563
:10B520007468200A0D00000053656C656374203652
:10B530007468200A0D00000053656C656374203741
:10B540007468200A0D00000057726F6E67207374D4
:10B55000617465203A202564000000003E68010007
:10B56000666801008E680100B6680100DE680100AF
:10B57000066901002E690100496E697469616C6990
:10B580007A696E6720736572766963652E2E2E2048
:10B590000A0D0000436F6E6E656374207061726106
:10B5A0006D65746572206576656E74200A0D000005
:10B5B000496E697469616C697A696E6720636F6E40
:10B5C0006E65637420706172616D65746572200AC6
:10B5D0000D000000537461727420616476657274AA
:10B5E0006973696E67200A0D000000004F666620CF
:10B5F0006C65642030200A0D00000000436F6E6E01
:10B6000065637420646576696365200A0D00000037
:10B61000446973636F6E6E656374206465766963F5
:10B6200065200A0D00000000506172616D6574654F
:10B63000722072657175657374200A0D0000000038
:10B6400054696D65206F757420696E2047415020E4
:10B650000A0D00000A6C0100286C0100786D0100E1
:10B660004A6C0100CE6C0100786D0100786D01001C
:10B67000B86C0100786D0100406D0100786D01002B
:10B68000786D0100786D0100786D0100786D010022
:10B69000786D0100786D0100786D0100786D010012
:10B6A000786D0100786D0100786D0100786D010002
:10B6B000786D0100786D0100786D0100786D0100F2
:10B6C000786D0100786D0100786D0100786D0100E2
:10B6D000786D0100786D0100786D0100786D0100D2
:10B6E000786D0100786D0100786D0100786D0100C2
:10B6F000786D0100786D0100786D0100786D0100B2
:10B70000786D0100786D0100786D0100786D0100A1
:10B71000786D0100786D0100786D0100786D010091
:10B72000786D0100786D0100786D0100786D010081
:10B73000786D0100786D0100786D0100786D010071
:10B74000786D0100786D0100786D0100786D010061
:10B75000786D0100786D0100786D0100886C010042
:10B76000424C45206576656E74206469737061741F
:10B770006368200A0D000000496E697469616C6994
:10B780007A696E6720737461636B2E2E2E200A0D0A
:10B790000000000048616E646C696E67206F6E2067
:10B7A000636F6E6E656374200A0D000048616E64FD
:10B7B0006C696E67206F6E20646973636F6E6E656F
:10B7C0006374200A0D00000048616E646C696E6746
:10B7D000206F6E207772697465200A0D20000000CA
:10B7E00048616E646C696E67206F6E20424C452024
:10B7F00073657276696365206576656E743A200AB2
:10B800000D0000004C6564206368617261637465BB
:10B81000726973746963206164646974696F6E200E
:10B820000A0D00005365727669636520616464697E
:10B8300074696F6E200A0D003292F2EF2BD26FBC4A
:10B84000554FFEF5ABDE8E2B2E2F536F7572636551
:10B850002F73645F636F6D6D6F6E2F736F667464AB
:10B8600065766963655F68616E646C65722E6300FE
:10B870002A8B0100B4880100228901006A89010035
:10B88000EC890100788A0100CA8A01002E2F536FCB
:10B89000757263652F6170705F636F6D6D6F6E2F72
:10B8A0006170705F74696D65722E63005465726DAE
:10B8B000696E616C00000000303132333435363748
:10B8C000383941424344454643000000802000206F
:08B8D000F0A7FF7F010000005A
:10B8D800FFFF00005345474745522052545400008B
:10B8E800000000000200000002000000ACB80100E7
:10B8F8005C2C002000040000000000000000000094
:10B90800000000000000000000000000000000002F
:10B91800000000000000000000000000ACB80100BA
:10B928005C30002010000000000000000000000053
:10B9380000000000000000000000000000000000FF
:10B9480000000000000000000000000000000000EF
:10B95800000000006C230020D42300203C24002099
:10B9680000000000000000000000000000000000CF
:10B9780000000000000000000000000000000000BF
:10B9880000000000C8B8010000000000000000002E
:10B99800000000000000000000000000000000009F
:10B9A800000000000000000000000000000000008F
:10B9B800000000000000000000000000000000007F
:10B9C800000000000000000000000000000000006F
:10B9D800000000000000000000000000000000005F
:10B9E800000000000000000000000000000000004F
:10B9F800000000000000000001000000000000003E
:10BA08000E33CDAB34126DE6ECDE05000B00000002
:10BA1800000000000000000000000000000000001E
:10BA2800000000000000000000000000000000000E
:10BA380000000000000000000000000000000000FE
:10BA480000000000000000000000000000000000EE
:040000031000AE4DEE
:00000001FF
